S00C0000756172742E737265635C
S113000009C017C015C014C013C012C021C010C04D
S11300100FC00EC011241FBECFE9CDBF20E0A0E663
S1130020B0E001C01D92AA36B207E1F78CD0CCC073
S1130030E7CF1F920F920FB60F9211248F9381E096
S1130040809369008F910F900FBE0F901F901895A9
S11300501F920F920FB60F9211242F938F939F9399
S113006019BE13BE9DE796BF81E08093650012BE62
S113007024E029BF22E023BF96BF809360009F91B4
S11300808F912F910F900FBE0F901F901895909104
S11300906600983058F0C49A10926800109262007A
S11300A0109265001092660019BE08959091650043
S11300B0913059F59091680091110CC080E88093BB
S11300C0620081E080936800809166008150809393
S11300D0660011C02091660090E002C09595879556
S11300E02A95E2F78795882787958093620088236D
S11300F021F0803819F4C49801C0C49A8091660034
S11301008F5F80936600109265000895CF93DF930C
S1130110D82FD09584E089BF82E083BFCAE0809164
S113012065008823E1F38D2FB2DFC150C1F710922F
S1130130680010926200109265001092660019BE69
S1130140DF91CF91089587B3836087BB88B38C7F99
S113015088BB83EB8FBD82E083BF12BE16BE19BC81
S1130160BB98BC9A789486B78F5F86BF86B789BDE3
S113017081EE94E00197F1F700C0000086B78F3F4D
S113018091F79FE32DE083E0915020408040E1F718
S113019000C0000086B7815086BF86B789BD81EE56
S11301A094E00197F1F700C0000086B78111F2CF07
S11301B09FE32DE083E0915020408040E1F700C0B0
S10F01C0000083E5A3DFCFCFF894FFCF4D
S903006894
